:020000040000FA
:0600000041EF02F01200C6
:06002A000100BC0400000F
:080030008F0000000C0000002D
:08003800DACFE4FFE2CFDAFFAA
:10004000E6529EA641D09E96C9CF89F00001885104
:10005000130807E2440E895D02E1886B02D088C074
:10006000C9FF050E885D09E189C083F083AD03D027
:10007000280E886F02D0140E886F040E885D04E18C
:1000800089C087F0050E886F030E885D04E189C082
:1000900086F0040E886F020E885D04E189C085F049
:1000A000030E886F880504E189C08AF0020E886F0C
:1000B00088510AE1FF0E895D02E1010E886F550E3D
:1000C000895D02E188C0C9FFE552E5CFDAFF110082
:1000D00040D99E969D86C00EF26E240EC66EC76AEB
:1000E0000001886B640EE66E0AEC02F0E5528F0E9A
:1000F000E66EE20EE66E040EE66EE66AE66A2BD85F
:10010000006E050EE15E0050FFD78F0EE66EE80E22
:10011000E66E030EE66EE66AE66A1DD8006E050E10
:10012000E15E0050640EE66E21EC02F0E5520F0E27
:10013000E66EE80EE66E030EE66EE66AE66A0BD839
:10014000006E050EE15E0050640EE66E21EC02F0DA
:10015000E552DBD71200D9CFE6FFE1CFD9FF040E7D
:10016000E126DE6ADE6ADE6ADD6ADD52DD52FB0E02
:10017000DBCF00F0FC0EDBCF01F0FD0EDBCF02F099
:10018000FE0EDBCF03F0D9CFE9FFDACFEAFF005054
:10019000EE5C0150EE580250EE580350EE5850E21B
:1001A000FA0EDBAE0CD000018051EA6A930FE96EC3
:1001B000000EEA22EFCF81F08A988A8A0DD0070ECE
:1001C0000001D8808055EA6A930FE96E000EEA229A
:1001D000EFCF81F08A888A9A81A102D0898601D0E6
:1001E000899681A302D0898401D0899481A502D007
:1001F000898201D0899281A702D0898001D089901B
:10020000FA0EDB503F0B060FE66E4FEC02F0E552A4
:10021000FA0EDB503F0B060FE66E4FEC02F0E55294
:100220000001802B080E805D01E1806BD9CFE9FFD2
:10023000DACFEAFFEE2A000EEE22EE22EE2297D768
:10024000040EE15C02E2E16AE552E16EE552E7CFBD
:10025000D9FF1200D9CFE6FFE1CFD9FF040EE12686
:10026000DE6ADE6ADE6ADD6ADD52DD52FB0EDBCF5E
:1002700000F0FC0EDBCF01F0FD0EDBCF02F0FE0E36
:10028000DBCF03F0D9CFE9FFDACFEAFF0050EE5C15
:100290000150EE580250EE580350EE5850E2FA0E5C
:1002A000DBAE0CD000018051EA6A930FE96E000EBC
:1002B000EA22EFCF81F08A988A8A0DD0070E0001DA
:1002C000D8808055EA6A930FE96E000EEA22EFCFDC
:1002D00081F08A888A9A81A102D08A8601D0899683
:1002E00081A302D08A8401D0899481A502D08A8218
:1002F00001D0899281A702D08A8001D08990FA0E1C
:10030000DB507F0B060FE66E4FEC02F0E552FA0E63
:10031000DB507F0B060FE66E4FEC02F0E55200015A
:10032000802B080E805D01E1806BD9CFE9FFDACF29
:10033000EAFFEE2A000EEE22EE22EE2297D7040EFE
:10034000E15C02E2E16AE552E16EE552E7CFD9FFF6
:100350001200700ED36E936A926A896A8A6A948CCC
:10036000948E9486949A928A0F0EC16E8A888A8A95
:060370000001806B120089
:0A0376002A0EF66E000EF76E000E60
:10038000F86E00010900F550A06F0900F550A16F4B
:1003900003E1A06701D03DD00900F5509B6F090033
:1003A000F5509C6F0900F5509D6F09000900F5504C
:1003B000E96E0900F550EA6E090009000900F550E0
:1003C0009E6F0900F5509F6F09000900F6CFA2F05B
:1003D000F7CFA3F0F8CFA4F09BC0F6FF9CC0F7FFC7
:1003E0009DC0F8FF00019E5302E19F5307E0090002
:1003F000F550EE6E9E07F8E29F07F9D7A2C0F6FF10
:10040000A3C0F7FFA4C0F8FF0001A007000EA15B86
:04041000BFD7120040
:0C041400FF0EE350076EEF0E01D0F30E58
:10042000E76EE72E11EF02F00C0E066EE76AE72E7C
:1004300017EF02F0062E16EF02F0072E0FEF02F074
:020440001200A8
:0E044200FF0EE350076E480E01D04C0EE76E21
:10045000E72EFED7E76AE72EFED7072EF7D7000074
:02046000120088
:0E046200000EF36E00EE00F0030E01D8120043
:10047000EA6002D0EE6AFCD7F350E9601200EE6A3F
:02048000FCD7A7
:0E04820012EE00F022EE00F0F86A059CBBECD2
:0E04900001F05DEC02F068EC00F0FBD712000A
:02049E00FF0E4F
:1004A000E350076E1B0E00D001D0200EE76EE72E42
:0A04B000FED7072EFAD700D0120085
:0204BA0012002E
:0404BC0005090A061E
:0804C000050109080A02060407
:020000040030CA
:0100010008F6
:010002001FDE
:010003001EDE
:010005008377
:010006008178
:010008000FE8
:01000900C036
:01000A000FE6
:01000B00E014
:01000C000FE4
:01000D0040B2
:00000001FF
